:020000040800F2
:10000000B8060020E91C0008650300086703000823
:100010006B0300086F030008730300080000000072
:10002000000000000000000000000000790300084C
:1000300077030008000000007B0300087D03000830
:100040007F0300088103000883030008850300087C
:1000500087030008890300088B0300088D0300084C
:100060008F0300089103000893030008950300081C
:1000700097030008990300089B0300089D030008EC
:100080009F030008A1030008A3030008031D000844
:10009000031D0008031D0008031D0008AD03000830
:1000A000AF030008B1030008B3030008B50300085C
:1000B000B7030008B9030008BB030008BD0300082C
:1000C000BF030008C1030008C3030008C5030008FC
:1000D000C7030008C9030008CB030008CD030008CC
:1000E000CF030008D1030008D303000800F002F892
:1000F00000F03EF80AA090E8000C82448344AAF184
:100100000107DA4501D100F033F8AFF2090EBAE881
:100110000F0013F0010F18BFFB1A43F0010318473B
:10012000D4210000F4210000103A24BF78C878C11F
:10013000FAD8520724BF30C830C144BF04680C60ED
:10014000704700000023002400250026103A28BF35
:1001500078C1FBD8520728BF30C148BF0B60704739
:100160001FB59DE8030001F0ADFF1FBD10B510BD28
:1001700002F036F81146FFF7F3FF00F009F802F03D
:1001800054F803B4FFF7F2FF03BC02F085F8000057
:1001900086B04FF4E13001F0DBFA54A001F0C3FB6C
:1001A0000121880300F051FC0121082000F040FCEF
:1001B00010208DF8170002208DF816004002ADF8CF
:1001C000140005A9514800F077F918208DF81700A0
:1001D00003208DF816004FF46040ADF8140005A917
:1001E0004A4800F069F94FF48270ADF8020010201F
:1001F000ADF80C000020ADF80000ADF80600ADF839
:1002000008000720ADF810000020ADF80400ADF89C
:100210000E004FF40070ADF80A0069463C4800F04B
:1002200095FE4FF480713A4800F06BFF0121384889
:1002300000F031FF01F02EFC01F044FA4FF40061B0
:10024000324800F0E8F933A001F06DFB01F0BAF894
:1002500020B935A001F067FB00BFFEE734A001F034
:1002600062FB01F062F8FF2001F0B4F9732001F0A5
:10027000F7F8002001F056F90C2001F0E1F8032016
:1002800001F000F92C49012001F004F901220021BC
:10029000104601F055F9012001F0C2F8022001F0EA
:1002A000ADF84FF40061194800F0B3F91DE001F01A
:1002B000BDF9012819D02149214801F0E4F921496B
:1002C000087001F01AF820A001F02DFB1D480078FD
:1002D00001F088FA1FA001F026FB184801781848A1
:1002E00001F051FB1EA001F01EFBE0E70D0A535484
:1002F0004D33324631303352455436206973206FC6
:100300006E6C696E652E0D0A00000000000C014045
:10031000003800406E524632344C30312B20636836
:1003200065636B3A200000004641494C0D0A00000D
:100330004F4B0D0A00000000E32200080D000020D2
:10034000380000200C0000205243562050495045F0
:1003500023000000205041594C4F41443A3E0000D8
:100360003C0D0A00704700BFFEE700BFFEE700BF7C
:10037000FEE700BFFEE77047704770477047704761
:1003800070477047704770477047704770477047B5
:1003900070477047704770477047704770477047A5
:1003A0007047704770477047704770477047704795
:1003B0007047704770477047704770477047704785
:1003C0007047704770477047704770477047704775
:1003D0007047704770477047704770477047704765
:1003E0007047704770477047704770477047704755
:1003F000704770477047000010B50446CC488442EF
:1004000008D10121042000F02DFB0021042000F080
:1004100029FB46E0C748844208D10121082000F0AA
:1004200021FB0021082000F01DFB3AE0C248844275
:1004300008D10121102000F015FB0021102000F050
:1004400011FB2EE0BD48844208D10121202000F09C
:1004500009FB0021202000F005FB22E0B84884427F
:1004600008D10121402000F0FDFA0021402000F0D9
:10047000F9FA16E0B348844208D10121802000F047
:10048000F1FA0021802000F0EDFA0AE0AE48844243
:1004900007D10121801500F0E5FA0021A01500F038
:1004A000E1FA10BD10B50121084600F0DBFA002189
:1004B000012000F0D7FA10BD2DE9F04102460025D9
:1004C0000026002000230024002791F803C00CF030
:1004D0000F0591F803C00CF0100CBCF1000F03D015
:1004E00091F802C04CEA050591F800C0BCF1000F7C
:1004F00031D0146800202BE04FF0010C0CFA00F30F
:10050000B1F800C00CEA03069E4220D183004FF0F0
:100510000F0C0CFA03F7BC4305FA03FC4CEA040485
:1005200091F803C0BCF1280F06D14FF0010C0CFA72
:1005300000FCC2F814C00AE091F803C0BCF1480FF7
:1005400005D14FF0010C0CFA00FCC2F810C0401CA1
:100550000828D1D31460B1F800C0BCF1FF0F34DD1E
:10056000546800202EE000F1080C4FF0010808FA52
:100570000CF3B1F800C00CEA03069E4221D18300BF
:100580004FF00F0C0CFA03F7BC4305FA03FC4CEADE
:10059000040491F803C0BCF1280F05D100F1080C48
:1005A00008FA0CF8C2F8148091F803C0BCF1480FA7
:1005B00007D100F1080C4FF0010808FA0CF8C2F856
:1005C0001080401C0828CED35460BDE8F0814FF65F
:1005D000FF710180022181700421C17070470246C1
:1005E000002093680B400BB1012000E00020704711
:1005F0000146886880B2704702460020D3680B40ED
:100600000BB1012000E0002070470146C86880B2AD
:10061000704701617047416170470AB1016100E0B4
:1006200041617047C16070474FF480320A43826174
:100630008161826182698269704702460020434B72
:1006400018684FF68073184040EA021008433F4B89
:10065000186070473E49C8617047F0B50A460023EC
:1006600000240021002500F00046B6F1004F02D121
:10067000364EF16901E0354E7168C0F3034583B22F
:1006800000F44016B6F5401F08D121F070612F4EDE
:10069000766826F070662D4F7E6012E000F48016BA
:1006A000B6F5801F06D1032606FA05F4A14341F0F2
:1006B000706106E0460D360103FA06F6B14341F0DB
:1006C000706122B1460D360103FA06F6314300F09F
:1006D0000046B6F1004F02D11C4EF16101E01B4E05
:1006E0007160F0BD30B500228B071C0F0F2303FA99
:1006F00004F2164B08338C1053F824309343134CF8
:1007000008348D1044F8253023468C1053F82430DB
:100710008C07240F00FA04F423430C4C08348D108A
:1007200044F8253030BD0A49DC31086070470000CC
:1007300000080140000C014000100140001401407D
:1007400000180140001C0140002001400000014051
:1007500000002042DF48006840F00100DD490860E9
:1007600008464068DC490840DA49486008460068A5
:10077000DA490840D74908600846006820F480201C
:1007800008600846406820F4FE0048604FF41F00EF
:1007900088607047CF49096821F48031CD4A1160E3
:1007A0001146096821F480211160B0F5803F03D023
:1007B000B0F5802F0ED106E0C649096841F48031BA
:1007C000C44A116007E0C349096841F4A021C14A45
:1007D000116000E000BF00BF704710B50146002265
:1007E000002300204A11012A02D1BA4C236806E0F6
:1007F000022A02D1B74C236A01E0B64C636A01F0C9
:100800001F02012494401C400CB1012000E0002094
:1008100010BD38B5002000900024002500BF312015
:10082000FFF7DBFF05460098401C00900098B0F5EC
:10083000A06F01D0002DF2D03120FFF7CEFF08B11C
:10084000012400E00024204638BD01460020A14AD2
:10085000106820F0F80040EAC10010607047A0491D
:1008600008607047024600209A4B586820F47C10BC
:1008700042EA01031843974B58607047984908664D
:10088000704701460020934A506820F00300084357
:10089000506070478F48406800F00C007047014678
:1008A00000208C4A506820F0F000084350607047E8
:1008B00001460020874A506820F4E06008435060F9
:1008C000704701460020834A506820F4605040EA97
:1008D000C1005060704729B17E4A527A02437D4B75
:1008E0005A7204E07B4A527A82437A4B5A727047BA
:1008F0007B49D8310860704701460020754A50682E
:1009000020F440400843506070470021714A203273
:100910001170704A82F82010012802D004280AD1F0
:1009200004E001216B4A2032117005E00521694A7B
:100930002032117000E000BF00BF704769490860B5
:1009400070476449096A0143624A11627047654908
:1009500044390860704730B500210022002400238C
:100960005C4D6D6805F00C0121B1042905D0082902
:1009700023D105E05C4D056022E05B4D05601FE082
:10098000544D6D6805F47012524D6D6805F4803455
:10099000022505EB92421CB9544D554305600BE00E
:1009A0004C4D6D6805F400351DB1504D5543056043
:1009B00002E04D4D5543056002E04B4D056000BF20
:1009C00000BF444D6D6805F0F0010909484D6B5CAE
:1009D0000568DD4045603F4D6D6805F4E061090A3A
:1009E000434D6B5C4568DD4085603A4D6D6805F4AC
:1009F0006051C90A3E4D6B5C4568DD40C560354DB0
:100A00006D6805F44041890B3A4D6B5CC568B5FBD8
:100A1000F3F5056130BD29B12E4A526902432D4BD1
:100A20005A6104E02B4A526982432A4B5A6170474B
:100A300029B1284A92690243264B9A6104E0254A6B
:100A400092698243234B9A61704729B1214AD26946
:100A50000243204BDA6104E01E4AD26982431D4BF7
:100A6000DA61704729B11B4AD2680243194BDA6038
:100A700004E0184AD2688243164BDA60704729B105
:100A8000144A12690243134B1A6104E0114A1269B5
:100A90008243104B1A617047124940390860704711
:100AA0000F49C86470470B49C87170470948406ACC
:100AB00040F0807007494862704701460020054AAF
:100AC00092680A400AB1012000E000207047014905
:100AD00088727047001002400000FFF8FFFFF6FE2A
:100AE000000042428004424200127A0000093D00A8
:100AF0000E0000201E00002010B50446FB48844272
:100B000009D101218803FFF7ADFF00214FF4804098
:100B1000FFF7A8FF32E0F648844209D101214804DA
:100B2000FFF7ADFF00214FF40030FFF7A8FF25E0ED
:100B3000F048844209D101218804FFF7A0FF002179
:100B40004FF48020FFF79BFF18E0EB48844209D167
:100B50000121C804FFF793FF00214FF40020FFF7A5
:100B60008EFF0BE0E548844208D101210805FFF71C
:100B700086FF00214FF48010FFF781FF10BD2DE9A3
:100B8000F04786B005460E460024A24600BFA146A7
:100B90000027B08900B100BF2F462C8A4CF6FF70A9
:100BA0000440F08804432C82AC894EF6F3100440D4
:100BB000B08831890843718908430443AC81AC8A09
:100BC0004FF6FF400440B0890443AC8201A8FFF710
:100BD000C2FEC648874202D1DDF810A001E0DDF870
:100BE0000CA0A88900F4004040B10AEBCA0000EB59
:100BF0000A1031684900B0FBF1F807E00AEBCA00BF
:100C000000EB0A1031688900B0FBF1F86420B8FBF2
:100C1000F0F004012009642101FB1089A88900F487
:100C2000004040B1322000EBC900B0FBF1F000F011
:100C30000700044308E0322000EB09106421B0FBF8
:100C4000F1F000F00F0004432C8106B0BDE8F087FE
:100C50004FF41651016000218180C18001810C2177
:100C6000418100218181704710B502460020108A21
:100C70004FF2FF0318400B884C8823438C88234392
:100C8000CC8823431843108210BD0021018041808D
:100C90008180C180704721B1828942F400528281F3
:100CA00004E082894DF6FF731A4082817047F0B5E7
:100CB0000346002400260025002040F66A17B942AA
:100CC00000D100BF1846C1F3421401F01F060127EE
:100CD00007FA06F5012C01D10C3004E0022C01D1F9
:100CE000103000E014301AB107682F43076002E0AB
:100CF0000768AF430760F0BD1AB1838A0B43838254
:100D000002E0838A8B4383827047028A4FF6F07336
:100D10001A400282028A0A430282704782894FF295
:100D2000FF731A40828182890A438281704721B110
:100D3000828942F00202828104E082894FF6FD73CB
:100D40001A4082817047028A4FF6DF731A4002828E
:100D5000028A0A430282704721B1028A42F4804229
:100D6000028204E0028A4BF6FF731A400282704747
:100D7000C1F308028280704701468888C0F30800EA
:100D80007047818941F0010181817047028BD2B2A5
:100D90000283028B42EA012202837047028B02F433
:100DA0007F420283028B0A430283704721B1828A09
:100DB00042F02002828204E0828A4FF6DF731A40FA
:100DC0008282704721B1828A42F01002828204E05E
:100DD000828A4FF6EF731A408282704721B1828A6D
:100DE00042F00802828204E0828A4FF6F7731A40CA
:100DF0008282704721B1828942F40042828103E0FD
:100E00008289C2F30E028281704721B1828A42F444
:100E10000062828204E0828A4FF2FF731A4082826B
:100E20007047828A4FF6FB731A408282828A0A4395
:100E30008282704721B1828A42F00202828204E0FB
:100E4000828A4FF6FD731A40828270470246002064
:100E5000B1F5007F00D100BF13880B400BB101201A
:100E600000E00020704701F40072B2F5007F00D16D
:100E700000BFCA430280704770B5024600240023B9
:100E80000025002040F66A16B14200D100BFC1F330
:100E9000421501F01F03012606FA03F3012D02D1CA
:100EA0009689334006E0022D02D1168A334001E0D4
:100EB000968A33400C12012606FA04F41688344050
:100EC00013B10CB1012000E0002070BD10B500226C
:100ED000002340F66A14A14200D100BF0A12012487
:100EE0009440A3B2DC43048010BD000000380140F0
:100EF0000044004000480040004C004000500040CA
:100F000010B50446BE48844208D101218014FFF781
:100F1000A9FD0021A014FFF7A5FD16E0B948844201
:100F200008D101210014FFF7AAFD00212014FFF7CA
:100F3000A6FD0AE0B448844207D10121C013FFF79F
:100F40009EFD0021E013FFF79AFD10BD10B50022B1
:100F5000028802F441520B884C8823438C88234337
:100F6000CC8823430C8923434C8923438C89234316
:100F7000CC8923431A430280838B4FF2FF742340B2
:100F800083830B8A038210BD2DE9F04F85B005469F
:100F90000C464FF0000902274FF000084FF0010BFC
:100FA0000026B246A88B4FF240010840A8830220D9
:100FB0002884B5F81C90A068022801D100BF38E051
:100FC000A08810B94FF0010B01E04FF0020B8D48E3
:100FD000854200D100E000BF6846FFF7BCFCDDF8A9
:100FE00000A0E088B0F5007F0AD14FEA1A2000EB9C
:100FF00080004000A168B0FBF1F0401D86B20BE01C
:101000004FEA4B10BAFBF0F000EB80004000A16803
:10101000B0FBF1F0401D86B20A20B6FBF0F606F0F8
:101020000108A6EB0800C0F34F074FF6FF7000EA77
:101030000828022F01DBFF2F02DD02274FF00008F6
:10104000E08840EA080038432884A088A189084342
:10105000618808432188084340F4006040EA090998
:10106000A5F81C9005B0BDE8F08F002101804180FB
:101070008180C180018141818181C18107210182FB
:1010800070470021018041808180C1800221816000
:1010900000218181704721B1028842F04002028024
:1010A00004E002884FF6BF731A400280704721B1F6
:1010B000828B42F48062828304E0828B4FF6FF339E
:1010C0001A408283704730B5002400230C1101259B
:1010D000A540ABB21AB185881D43858002E08588A2
:1010E0009D43858030BD1AB183880B43838002E025
:1010F00083888B438380704781817047014688894C
:1011000070474FF6FF62914204D0028842F4807229
:10111000028004E002884FF6FF631A4002807047A5
:1011200021B1828842F00402828004E082884FF676
:10113000FB731A408280704702884FF2FF731A4097
:10114000028002880A4302807047018841F480517E
:101150000180704721B1028842F40052028004E00D
:1011600002884DF6FF731A40028070470246002045
:10117000012901D0108B00E0908A70470146088A4F
:101180007047B1F5804F04D1028842F4804202805A
:1011900004E002884BF6FF731A4002807047024653
:1011A000002013890B400BB1012000E000207047A4
:1011B000CA4302817047F0B5024600200024002394
:1011C000002501F00F070126BE40B4B20B11012625
:1011D0009E40B3B2968806EA03051689264016B1EA
:1011E0000DB1012000E00020F0BD10B5002201F09B
:1011F0000F040123A3409AB2D343038110BD000022
:101200000030014000380040003C004070B504460A
:101210004FF48051FA48FFF7FEF904F01F0000F088
:1012200078FAFF2000F075FA05464FF48051F44833
:10123000FFF7EFF9284670BD70B504460D464FF430
:101240008051EF48FFF7E7F9202C09DA04F01F017D
:1012500041F0200000F05DFA284600F05AFA0DE057
:10126000204600F056FAE12C08D0E22C06D0E32C00
:1012700004D0FF2C02D0284600F04BFA4FF48051E6
:10128000DF48FFF7C6F970BD70B506460C46154637
:101290004FF48051DA48FFF7BEF9304600F039FAD2
:1012A00004E0FF2000F035FA04F8010B281EA5F138
:1012B0000101CDB2F5D14FF48051D148FFF7A9F922
:1012C00070BD70B506460C4615464FF48051CC48AB
:1012D000FFF7A1F9304600F01CFA03E014F8010B07
:1012E00000F017FA281EA5F10101CDB2F6D14FF496
:1012F0008051C348FFF78DF970BD10B50720FFF787
:1013000085FF044644F0700421460720FFF794FF50
:1013100010BD10B5FF21E120FFF78EFF10BD10B505
:10132000FF21E220FFF788FF10BD10B50821002043
:10133000FFF782FF3F210120FFF77EFF03210220FC
:10134000FFF77AFF03210846FFF776FF0321042009
:10135000FFF772FF02210520FFF76EFF0E21062026
:10136000FFF76AFF00210720FFF766FF0021112029
:10137000FFF762FF00211220FFF75EFF002113201C
:10138000FFF75AFF00211420FFF756FF0021152018
:10139000FFF752FF00211620FFF74EFF00211C200F
:1013A000FFF74AFF00211D20FFF746FFFFF7B7FFB9
:1013B000FFF7AFFFFFF7A1FF4FF480519048FFF711
:1013C00028F910BD7CB58FA5052229463020FFF7EE
:1013D00078FF052269461020FFF756FF002409E038
:1013E00015F8011B1DF80400814201D000207CBDCE
:1013F000601CC4B2052CF3DB0120F8E770B505468C
:101400000020FFF703FF0446022D02D144F002043E
:1014100001E024F0020421460020FFF70DFF70BD1B
:1014200070B505460020FFF7F1FE044624F00104E4
:1014300005F00100044321460020FFF7FDFE70BDCA
:1014400070B505460020FFF7E1FE044624F00C04C9
:1014500005F00C00044321460020FFF7EDFE70BDAF
:1014600010B5044621460520FFF7E6FE10BD70B515
:1014700004460D46284664F31F10C1B20420FFF74E
:10148000DBFE70BD10B50446A01EC1B20320FFF7FD
:10149000D3FE10BD70B504460D46072C31D2DFE8EF
:1014A00004F005062728292A040000BF00BF0320F6
:1014B000FFF7ACFE401CC6B235444FF48051504893
:1014C000FFF7A9F85149095D41F0200000F021F92A
:1014D00000BF15F8010900F01CF9301EA6F101014A
:1014E000CEB2F6D14FF480514548FFF792F809E0AB
:1014F00000BF00BF00BF2978444A105DFFF79CFE83
:1015000000E000BF00BF70BD70B505460620FFF7C4
:101510007DFE044624F006042C4321460620FFF7F6
:101520008BFE70BD70B505460620FFF76FFE0446C2
:1015300024F028042C4321460620FFF77DFE70BDD1
:101540002DE9F04104460E4617460220FFF75EFEE5
:101550000121A140084300F03F0529460220FFF782
:101560006BFE07F03F012A4A105DFFF765FE012080
:10157000FFF74CFE0546012E04D10120A040284370
:10158000C5B202E00120A040854329460120FFF7B3
:1015900053FEBDE8F08170B505460220FFF736FE28
:1015A00004460120A840844304F03F042146022061
:1015B000FFF742FE70BD70B504460120FFF726FE1E
:1015C00005460120A0402843C5B229460120FFF767
:1015D00033FE70BD70B50446052C04DD00210120EA
:1015E000FFF72AFE0AE00120FFF710FE0546012062
:1015F000A040854329460120FFF71EFE70BD000074
:10160000000C01406E52463234000000EC2200080B
:10161000E622000810B50720FFF7F8FD10BD10B551
:101620000720FFF7F3FD00F0700010BD10B5172084
:10163000FFF7ECFD00F0030010BD10B51720FFF719
:10164000E5FDC0F3011010BD10B50720FFF7DEFD6A
:10165000C0F3420010BD10B50820FFF7D7FD10BD44
:1016600010B50520FFF7D2FD044621460520FFF7FF
:10167000E3FD10BD70B504460D462A462146A02064
:10168000FFF71FFE70BD70B506460C460720FFF73A
:10169000BDFDC0F34205062D0DDA0949485DFFF78F
:1016A000B5FD2070207820B1227831466120FFF707
:1016B000EBFD284670BD00202070FF20FAE70000F7
:1016C000E622000808B51F48806940F008001D495F
:1016D000886110208DF8030002208DF80200C002FE
:1016E000ADF8000069461848FEF7E6FE4FF4805159
:1016F0001548FEF78EFF4FF40060ADF80000694614
:101700001148FEF7D9FE4FF400610F48FEF783FF42
:1017100008BD10B5044600BF02210C48FFF73FFD8D
:101720000028F9D021460948FFF7E6FC00BF012157
:101730000648FFF734FD0028F9D00448FFF7DEFC27
:10174000C0B210BD00100240000C01400038004043
:1017500010B586B00446012144F20400FFF768F991
:101760004FF40070ADF8140003208DF81600182017
:101770008DF8170005A9C048FEF79EFE4FF4806063
:10178000ADF8140003208DF8160004208DF8170022
:1017900005A9B948FEF790FE01940020ADF81000AD
:1017A0000C20ADF80E000020ADF80800ADF80C00DC
:1017B000ADF80A0001A9B148FFF7E1F90121AF48EE
:1017C000FFF769FA06B010BD10B5044600BF40210E
:1017D000AA48FFF73BFB0028F9D02146A748FFF7AE
:1017E000C7FA10BD3EB504460025002C03DA2D20B3
:1017F000FFF7EAFF644200BF0A2094FBF0F100FB10
:1018000011403030C2B228466D1C0DF800200A206D
:1018100094FBF0F0041EEFDC6D1E04E01DF80500E3
:10182000FFF7D2FF6D1E002DF8DA3EBD3EB504462F
:101830000025002C03DA2D20FFF7C6FF64420A2C96
:1018400004DA002C02DB3020FFF7BEFF00BF0A20C5
:1018500094FBF0F100FB11403030C2B228466D1C01
:101860000DF800200A2094FBF0F0041EEFDC6D1E42
:1018700004E01DF80500FFF7A7FF6D1E002DF8DA44
:101880003EBD70B504462511E91705EB117109112C
:10189000A5EB01117AA2505CFFF796FF04F00F054B
:1018A000E91705EB11710911A5EB011174A2505C48
:1018B000FFF78AFF70BD70B504460C250DE044FAB1
:1018C00005F6F11706EB11710911A6EB01116CA2D7
:1018D000505CFFF779FF281FC5B2002DEFDC04F044
:1018E0000F06F11706EB11710911A6EB011164A2A5
:1018F000505CFFF769FF70BD70B504461C2509E018
:1019000024FA05F101F00F015DA2505CFFF75CFFC6
:10191000281FC5B2002DF3DC04F00F0158A2505C63
:10192000FFF752FF70BD10B5044603E014F8010B39
:10193000FFF74AFF20780028F8D110BD70B50446A3
:101940000D46002605E014F8010BFFF73DFF701C63
:1019500086B2AE42F7DB70BD2DE9F04104460D467C
:10196000904600260BE014F8017B202F01DD39465C
:1019700000E041460846FFF727FF701C86B2AE42E2
:10198000F1DBBDE8F0812DE9F04104460F464FF050
:1019900000081CE014F8015B2E11F11706EB117121
:1019A0000911A6EB011136A2505CFFF70DFF05F0FF
:1019B0000F06F11706EB11710911A6EB011130A208
:1019C000505CFFF701FF08F101001FFA80F8B845ED
:1019D000E0DBBDE8F0812DE9F84F82460F469046E6
:1019E0009B46CDF80080009800F070FA0546002470
:1019F0003AE02046FFF75FFF3A20FFF7E5FE2020A0
:101A0000FFF7E2FE04EB0800B84203DB381B1FFAC5
:101A100080F900E0C1460AEB04014A46284600F07E
:101A2000ABFA002605E03146721C96B2685CFFF7FF
:101A300028FF4E45F7DB2020FFF7C6FE002600BF3B
:101A4000A95D202901DDA95D00E059460846FFF7A0
:101A5000BBFE701C80B206464845F1DB0A20FFF74A
:101A6000B3FE04EB090084B2BC42C2DB284600F09E
:101A70005CFABDE8F88F0000000801400038014022
:101A800030313233343536373839414243444546B4
:101A90000000000010B5194800684FF47A71B0FBDF
:101AA000F1F0401E4FF0E021486148170F21002857
:101AB00007DA0A07140E124A00F00F031B1FD45452
:101AC00003E00A07130E0F4A135400BF00204FF023
:101AD000E02188610520086110BD08B5009008E08C
:101AE0004FF0E021096901F4803111B10099491EDC
:101AF000009100990029F3D108BD000024000020C6
:101B000018ED00E000E400E00CB50020019000902A
:101B10006C48006840F480306A49086000BF69483A
:101B2000006800F4003000900198401C019000987B
:101B300018B90198B0F5A06FF1D16248006800F4BF
:101B4000003010B10120009001E0002000900098CA
:101B5000012843D15C48006840F010005A490860F1
:101B60000846006820F0030008600846006840F05E
:101B7000020008605348406852494860084640687F
:101B800048600846406840F4806048600846406805
:101B900020F47C1048600846406840F4E810486033
:101BA0000846006840F08070086000BF4548006843
:101BB00000F000700028F9D04248406820F003008F
:101BC000404948600846406840F00200486000BF55
:101BD0003C48406800F00C000828F9D10CBD10B555
:101BE000FFF792FF10BD10B53648006840F00100C5
:101BF0003449086008464068344908403149486023
:101C000008460068324908402E49086008460068C6
:101C100020F4802008600846406820F4FE004860F8
:101C20004FF41F008860FFF7DAFF4FF0006029498A
:101C3000086010BD10B5002100200022214B5B6818
:101C400003F00C0121B1042906D0082928D107E0AE
:101C5000214B224C236027E01F4B204C236023E0C4
:101C6000184B5B6803F47010164B5B6803F480320A
:101C7000022303EB904022B9194B4343174C2360D6
:101C80000DE0104B5B6803F4003323B1144B434366
:101C9000124C236003E0104B4343104C236003E0DD
:101CA0000D4B0E4C236000BF00BF064B5B68C3F3B7
:101CB00003130C4CE15C094B1B68CB40074C2360C1
:101CC00010BD000000100240002002400000FFF89C
:101CD000FFFFF6FE08ED00E000127A00240000206D
:101CE00000093D00280000200948804709480047B6
:101CF000FEE7FEE7FEE7FEE7FEE7FEE7FEE7FEE7BC
:101D0000FEE7FEE704480549054A064B7047000018
:101D1000E71B0008ED000008B8000020B80600200E
:101D2000B8020020B80200204FF0FF3000BE70471C
:101D300000BE704770B504460D4614B94FF0FF3031
:101D400070BD20783A281AD15AA1204600F05AF9DD
:101D500010B948F20100F3E758A1204600F052F90B
:101D600010B948F20200EBE756A1204600F04AF90C
:101D700010B948F20300E3E74FF0FF30E0E74FF01F
:101D8000FF30DDE701466FF40040084420B1012830
:101D900004D0022806D103E0002070470020FCE7B1
:101DA0000020FAE74FF0FF30F7E72DE9F041064653
:101DB0000C46154698466FF40040304420B1012887
:101DC00006D0022811D10EE04FF0FF30BDE8F081BF
:101DD00005E014F8017B3846FFF7AAFF6D1E002DC1
:101DE000F7D10020F2E70020F0E74FF0FF30EDE7F9
:101DF0002DE9F04107460E46144698466FF4004020
:101E0000384420B1012810D0022814D110E0FFF787
:101E10008BFF0546002D03DA44F00040BDE8F08159
:101E200006F8015B641E2046F8E74FF0FF30F5E747
:101E30004FF0FF30F2E74FF0FF30EFE700BE7047A2
:101E400001466FF40040084420B1012804D0022864
:101E500006D103E0012070470120FCE70120FAE7EA
:101E60000020F8E702466FF40040104420B101283A
:101E700005D0022809D105E04FF0FF3070474FF040
:101E8000FF30FBE74FF0FF30F8E74FF0FF30F5E7AA
:101E900001466FF40040084420B1012804D0022814
:101EA00006D103E0002070470020FCE70020FAE79D
:101EB0000020F8E73A535444494E00003A53544442
:101EC0004F5554003A5354444552520070B506469B
:101ED00000F0DCF8056806F10B0020F00704B442BE
:101EE0009CBF002070BD2B466A68BAB11068A04242
:101EF00010D304F1080188423CBF5068586007D3F2
:101F00005168101941601168091B01605860146024
:101F1000101D70BD13465268002AE7D1214628469D
:101F200000F0BCF80028DED170BD70B50446051F76
:101F300000F0ACF80068002C14BF446870BD002CA1
:101F400018BFAC423CBF20466468F8D301680A1849
:101F5000AA4218BF456003D12A68054611440160B2
:101F600028684119A1421CBF6C6070BD616869603E
:101F700021680844286070BD032A40F2308010F0C8
:101F8000030C00F0158011F8013BBCF1020F624414
:101F900098BF11F801CB00F8013B38BF11F8013BA5
:101FA000A2F1040298BF00F801CB38BF00F8013B52
:101FB00011F0030300F0BC80083AC0F0088051F82B
:101FC000043B083A51F804CBA0E80810F5E7121DCD
:101FD0005CBF51F8043B40F8043BAFF30080D207EC
:101FE00024BF11F8013B11F801CB48BF11F8012BB8
:101FF00024BF00F8013B00F801CB48BF00F8012BDB
:10200000704700004FF0013C50F8042B51F8043B9E
:102010009A4221D1A2EB0C03934313EACC1317D1BC
:1020200050F8042B51F8043B9A4215D1A2EB0C0353
:10203000934313EACC130BD150F8042B51F8043B13
:102040009A4209D1A2EB0C03934313EACC13DBD0E1
:102050004FF00000704700BFD01A01BAB1FA81F109
:1020600001F0180122FA01F0CB40C1F12001DBB2EE
:10207000C0B2C01A2CFA01F3D11A914311EAC3116C
:10208000E6D17047704770477047000000487047BE
:1020900060000020704770477047704738B50446AD
:1020A0000A4600206946AFF30080002808BF38BD0B
:1020B00002460099204600F071F8012038BD012049
:1020C00000F086B8F8B5AFF30080054600200C4656
:1020D000102000BF0646A819A0420DD93246694615
:1020E0000020AFF30080070008BF00F071F80098EF
:1020F000A04218BF0546C419FFF7C8FF0560074690
:10210000F01D20F007004619284600F00AF8B442F6
:1021100008BFF8BDA21B31463868BDE8F84000F0A2
:102120003DB800210160C0E90110704710207047E0
:1021300010B5203AC0F00B80B1E81850203AA0E862
:102140001850B1E81850A0E81850BFF4F5AF5FEA96
:10215000027C24BFB1E81850A0E8185044BF18C949
:1021600018C0BDE810405FEA827C24BF51F8043BF0
:1021700040F8043B08BF7047D20728BF31F8023B44
:1021800048BF11F8012B28BF20F8023B48BF00F8D8
:10219000012B7047004870475800002003464068F4
:1021A0008C46002818BF88423CBF03464068F8D3DD
:1021B00018681844884207D00CF1030020F007008B
:1021C000001D411A521A0146081D0A60FFF7ADBEF4
:1021D00010B500F039F8BDE8104000F02FB8704796
:1021E0007546FFF7D7FFAE4605006946534620F017
:1021F0000700854618B020B5FFF784FDBDE82040F4
:102200004FF000064FF000074FF000084FF0000BB2
:1022100021F00701AC46ACE8C009ACE8C009ACE865
:10222000C009ACE8C0098D46704710B50446AFF34D
:1022300000802046BDE81040FDF7A3BF002801D074
:1022400000F02AB87047000010B5012805D0002121
:1022500003A000F027F8012010BD09A1F8E7000055
:1022600053494752544D454D3A204F7574206F667F
:102270002068656170206D656D6F727900000000E7
:102280003A2048656170206D656D6F727920636FCB
:10229000727275707465640001491820ABBEFEE768
:1022A0002600020070B505460C460A2000E06D1CB1
:1022B000FFF7C4FD35B128780028F8D102E0641C8E
:1022C000FFF7BCFD14B120780028F8D1BDE87040BC
:1022D0000A20FFF7B3BD1112131415160A0B0C0DCB
:1022E0000E0F10E71CE31112131415160A0B0C0D38
:1022F0000E0F10001423000800000020380000001A
:10230000280100084C230008380000208006000047
:102310004401000800000000000000000000000070
:10232000000000000000010203040102030406078C
:10233000080902040608000000A24A040000000088
:0C23400000000000010203040607080969
:04000005080000ED02
:00000001FF
